:020000040000FA
:020000002228B4
:040002000034003492
:080008008C0003088D00640068
:100010000B1D0E280B118530810023200D08830055
:100020008C0E0C0E090085018601FC3065000F3036
:100030006600003483160430810083018B160B1197
:100040008B1700341320060803399100120203199C
:1000500075289208031D362802301102031D31282D
:100060005F2801301102031D60285D280130120253
:10007000031D43289108031D3E285F280330110209
:10008000031D60285D2802301202031D5028033032
:100090001102031D4C285F289108031D60285D286C
:1000A00003301202031D602801301102031D59287C
:1000B0005F2802301102031D6028DD0A6028DF0A74
:1000C00004305F02031D6A280510051405100301A2
:1000D000DF00732804305D02031D7328851085142A
:1000E00085100301DD00110892002328080006088E
:1000F00003399100120203199D2891188D28111CB3
:100100008D2812188D28911C8828921C8D288A28E9
:1001100092188D28051005149D28911C9D281118F2
:100120009D2812189D28911C982892189D289A287D
:10013000921C9D28851085149D281108920077280F
:1001400000309600A9209200921F9A28921C8A28BB
:10015000A2280310060803399300940D140D13040C
:100160009500130894008A0182070034FF3401349B
:100170000034013400340034FF34FF3400340034E0
:10018000013400340134FF34003400308A00150893
:1001900082070800E028D9280800D92808000800AC
:1001A000E028E02808000800D9280800D928E0281D
:1001B0000800960AC9301602031D080096030800BD
:1001C0009603FF301602031D0800960A08003D3012
:1001D0008E0004308F008E0BEB288F0BEB28000075
:0401E00000000034E7
:00000001FF
